{
  "contractName": "Evvent",
  "abi": [
    {
      "constant": true,
      "inputs": [],
      "name": "tixicoToken",
      "outputs": [
        {
          "name": "",
          "type": "address"
        }
      ],
      "payable": false,
      "stateMutability": "view",
      "type": "function"
    },
    {
      "constant": true,
      "inputs": [],
      "name": "boughtCount",
      "outputs": [
        {
          "name": "",
          "type": "uint256"
        }
      ],
      "payable": false,
      "stateMutability": "view",
      "type": "function"
    },
    {
      "constant": true,
      "inputs": [],
      "name": "owner",
      "outputs": [
        {
          "name": "",
          "type": "address"
        }
      ],
      "payable": false,
      "stateMutability": "view",
      "type": "function"
    },
    {
      "constant": true,
      "inputs": [],
      "name": "ticketCount",
      "outputs": [
        {
          "name": "",
          "type": "uint256"
        }
      ],
      "payable": false,
      "stateMutability": "view",
      "type": "function"
    },
    {
      "inputs": [
        {
          "name": "_ticketCount",
          "type": "uint256"
        },
        {
          "name": "_maxResellPrice",
          "type": "uint256"
        },
        {
          "name": "_eventTime",
          "type": "uint256"
        },
        {
          "name": "_tixicoToken",
          "type": "address"
        }
      ],
      "payable": false,
      "stateMutability": "nonpayable",
      "type": "constructor"
    },
    {
      "payable": true,
      "stateMutability": "payable",
      "type": "fallback"
    },
    {
      "anonymous": false,
      "inputs": [
        {
          "indexed": false,
          "name": "ticketId",
          "type": "uint256"
        },
        {
          "indexed": false,
          "name": "buyer",
          "type": "address"
        },
        {
          "indexed": false,
          "name": "price",
          "type": "uint256"
        }
      ],
      "name": "LogTicketRegistered",
      "type": "event"
    },
    {
      "anonymous": false,
      "inputs": [
        {
          "indexed": false,
          "name": "ticketId",
          "type": "uint256"
        },
        {
          "indexed": false,
          "name": "seller",
          "type": "address"
        },
        {
          "indexed": false,
          "name": "buyer",
          "type": "address"
        },
        {
          "indexed": false,
          "name": "price",
          "type": "uint256"
        }
      ],
      "name": "LogTicketSwapped",
      "type": "event"
    },
    {
      "anonymous": false,
      "inputs": [
        {
          "indexed": false,
          "name": "ticketId",
          "type": "uint256"
        },
        {
          "indexed": false,
          "name": "attendee",
          "type": "address"
        }
      ],
      "name": "LogTicketBurned",
      "type": "event"
    },
    {
      "anonymous": false,
      "inputs": [
        {
          "indexed": false,
          "name": "ticketId",
          "type": "uint256"
        },
        {
          "indexed": false,
          "name": "price",
          "type": "uint256"
        },
        {
          "indexed": false,
          "name": "owner",
          "type": "address"
        }
      ],
      "name": "LogTicketListed",
      "type": "event"
    },
    {
      "anonymous": false,
      "inputs": [
        {
          "indexed": false,
          "name": "owner",
          "type": "address"
        }
      ],
      "name": "LogEventCreated",
      "type": "event"
    },
    {
      "constant": false,
      "inputs": [
        {
          "name": "categoryName",
          "type": "string"
        },
        {
          "name": "row",
          "type": "uint256"
        },
        {
          "name": "seat",
          "type": "uint256"
        },
        {
          "name": "ticketId",
          "type": "uint256"
        }
      ],
      "name": "createTicket",
      "outputs": [
        {
          "name": "",
          "type": "uint256"
        }
      ],
      "payable": false,
      "stateMutability": "nonpayable",
      "type": "function"
    },
    {
      "constant": true,
      "inputs": [
        {
          "name": "tOwner",
          "type": "address"
        }
      ],
      "name": "getTicketIds",
      "outputs": [
        {
          "name": "ticketIds",
          "type": "uint256[]"
        }
      ],
      "payable": false,
      "stateMutability": "view",
      "type": "function"
    },
    {
      "constant": true,
      "inputs": [],
      "name": "ticketsLeft",
      "outputs": [
        {
          "name": "",
          "type": "uint256"
        }
      ],
      "payable": false,
      "stateMutability": "view",
      "type": "function"
    },
    {
      "constant": true,
      "inputs": [
        {
          "name": "ticketId",
          "type": "uint256"
        }
      ],
      "name": "getTicketInformation",
      "outputs": [
        {
          "name": "",
          "type": "string"
        },
        {
          "name": "",
          "type": "bool"
        },
        {
          "name": "",
          "type": "bool"
        },
        {
          "name": "",
          "type": "uint256"
        },
        {
          "name": "",
          "type": "uint256"
        },
        {
          "name": "",
          "type": "uint256"
        }
      ],
      "payable": false,
      "stateMutability": "view",
      "type": "function"
    },
    {
      "constant": false,
      "inputs": [
        {
          "name": "ticketId",
          "type": "uint256"
        },
        {
          "name": "price",
          "type": "uint256"
        }
      ],
      "name": "listTicket",
      "outputs": [
        {
          "name": "",
          "type": "uint256"
        }
      ],
      "payable": false,
      "stateMutability": "nonpayable",
      "type": "function"
    },
    {
      "constant": true,
      "inputs": [],
      "name": "getListedTicketIds",
      "outputs": [
        {
          "name": "listedIds",
          "type": "uint256[]"
        }
      ],
      "payable": false,
      "stateMutability": "view",
      "type": "function"
    },
    {
      "constant": false,
      "inputs": [
        {
          "name": "ticketId",
          "type": "uint256"
        }
      ],
      "name": "swapTicket",
      "outputs": [
        {
          "name": "",
          "type": "uint256"
        }
      ],
      "payable": false,
      "stateMutability": "nonpayable",
      "type": "function"
    },
    {
      "constant": false,
      "inputs": [
        {
          "name": "ticketId",
          "type": "uint256"
        }
      ],
      "name": "burnTicket",
      "outputs": [
        {
          "name": "",
          "type": "uint256"
        }
      ],
      "payable": false,
      "stateMutability": "nonpayable",
      "type": "function"
    },
    {
      "constant": false,
      "inputs": [
        {
          "name": "categoryName",
          "type": "string"
        },
        {
          "name": "basePrice",
          "type": "uint256"
        }
      ],
      "name": "createCategory",
      "outputs": [
        {
          "name": "",
          "type": "uint256"
        }
      ],
      "payable": false,
      "stateMutability": "nonpayable",
      "type": "function"
    },
    {
      "constant": true,
      "inputs": [
        {
          "name": "categoryName",
          "type": "string"
        }
      ],
      "name": "getCategoryPrice",
      "outputs": [
        {
          "name": "",
          "type": "uint256"
        }
      ],
      "payable": false,
      "stateMutability": "view",
      "type": "function"
    }
  ],
  "bytecode": "0x608060405261270f600455600060055560006006556305f5e0ff60075560016008556000600a5534801561003257600080fd5b5060405160808061165d83398101604081815282516020808501518386015160609096015160038054600160a060020a03338116600160a060020a0319928316179283905560098a905560048790556007859055600b80548286169316929092179091551686529351929590949093927fe9f6db8168674c5167b0df7f9d307f4948e973ef83140e5b5ab57a35a3921332929181900390910190a15050505061157d806100e06000396000f3006080604052600436106100cf5763ffffffff7c01000000000000000000000000000000000000000000000000000000006000350416630fca1d5d81146100d45780631654ae76146101055780632a9057311461012c5780632decc62b14610191578063305a905a146101f757806330f1081a146102125780636cab5e5b1461026d57806375f857ae1461028257806376870bb21461033d5780638da5cb5b1461035e578063a476b73d14610373578063aa6faf381461038b578063cfbd900f146103a3578063ed4883f2146103b8575b600080fd5b3480156100e057600080fd5b506100e9610411565b60408051600160a060020a039092168252519081900360200190f35b34801561011157600080fd5b5061011a610420565b60408051918252519081900360200190f35b34801561013857600080fd5b50610141610426565b60408051602080825283518183015283519192839290830191858101910280838360005b8381101561017d578181015183820152602001610165565b505050509050019250505060405180910390f35b34801561019d57600080fd5b506040805160206004803580820135601f810184900484028501840190955284845261011a9436949293602493928401919081908401838280828437509497505084359550505060208301359260400135915061048f9050565b34801561020357600080fd5b5061011a6004356024356109ca565b34801561021e57600080fd5b506040805160206004803580820135601f810184900484028501840190955284845261011a9436949293602493928401919081908401838280828437509497505093359450610bbc9350505050565b34801561027957600080fd5b5061011a610cbd565b34801561028e57600080fd5b5061029a600435610ceb565b60405180806020018715151515815260200186151515158152602001858152602001848152602001838152602001828103825288818151815260200191508051906020019080838360005b838110156102fd5781810151838201526020016102e5565b50505050905090810190601f16801561032a5780820380516001836020036101000a031916815260200191505b5097505050505050505060405180910390f35b34801561034957600080fd5b50610141600160a060020a0360043516610df8565b34801561036a57600080fd5b506100e9610e86565b34801561037f57600080fd5b5061011a600435610e95565b34801561039757600080fd5b5061011a600435610f58565b3480156103af57600080fd5b5061011a6113da565b3480156103c457600080fd5b506040805160206004803580820135601f810184900484028501840190955284845261011a9436949293602493928401919081908401838280828437509497506113e09650505050505050565b600b54600160a060020a031681565b60065481565b600c5460609060001061043857600080fd5b600c80548060200260200160405190810160405280929190818152602001828054801561048457602002820191906000526020600020905b815481526020019060010190808311610470575b505050505090505b90565b6000600a546002866040518082805190602001908083835b602083106104c65780518252601f1990920191602091820191016104a7565b51815160209384036101000a6000190180199092169116179052920194855250604051938490030190922054600a540192909210159150610508905057600080fd5b6004546006541061051857600080fd5b60008281526001602052604090206002015462010000900460ff161561053d57600080fd5b60006002866040518082805190602001908083835b602083106105715780518252601f199092019160209182019101610552565b51815160209384036101000a60001901801990921691161790529201948552506040519384900301909220549290921191506105ae905057600080fd5b6002856040518082805190602001908083835b602083106105e05780518252601f1990920191602091820191016105c1565b51815160209384036101000a600019018019909216911617905292019485525060408051948590038201852054600b547f70a08231000000000000000000000000000000000000000000000000000000008752600160a060020a03338116600489015292519196921694506370a082319350602480830193928290030181600087803b15801561066f57600080fd5b505af1158015610683573d6000803e3d6000fd5b505050506040513d602081101561069957600080fd5b505110156106a657600080fd5b6006546106ba90600163ffffffff61144816565b60068190555061072d6002866040518082805190602001908083835b602083106106f55780518252601f1990920191602091820191016106d6565b51815160209384036101000a6000190180199092169116179052920194855250604051938490030190922054600a5492509050611448565b600a556000828152600160208181526040909220875161075593919092019190880190611490565b506000828152600160208181526040808420805473ffffffffffffffffffffffffffffffffffffffff191633600160a060020a038181169283178455600280850180546201000062ff00001990911617905560038086018c9055600586018e9055600686018d905593895288875285892080546008909601869055978501885596885296859020909201889055600b54905492518b51918716966323b872dd9693959416938c9282918401908083835b602083106108245780518252601f199092019160209182019101610805565b51815160209384036101000a60001901801990921691161790529201948552506040805194859003820185205463ffffffff89167c0100000000000000000000000000000000000000000000000000000000028652600160a060020a0397881660048701529590961660248501526044840194909452505091516064808401938290030181600087803b1580156108ba57600080fd5b505af11580156108ce573d6000803e3d6000fd5b505050506040513d60208110156108e457600080fd5b505115156108f157600080fd5b60008281526001602090815260409182902060038101549054925188517f087dc266027378dafaa4169e761afed8d3bedb71f9fcebddf662d08d47bb99a5949293600160a060020a03909316926002928b9290918291908401908083835b6020831061096e5780518252601f19909201916020918201910161094f565b51815160001960209485036101000a0190811690199190911617905292019485525060408051948590038201852054968552600160a060020a0390951690840152505080820192909252519081900360600190a1509392505050565b60008281526001602052604081206002015462010000900460ff1615156109f057600080fd5b60008381526001602052604090206002015460ff1615610a0f57600080fd5b600083815260016020526040902060020154610100900460ff1615610a3357600080fd5b60008381526001602052604090205433600160a060020a03908116911614610a5a57600080fd5b60008211610a6757600080fd5b610afe600280600160008781526020019081526020016000206001016040518082805460018160011615610100020316600290048015610ade5780601f10610abc576101008083540402835291820191610ade565b820191906000526020600020905b815481529060010190602001808311610aca575b50509283525050604051908190036020019020549063ffffffff61145516565b8210610b0957600080fd5b60008381526001602081815260408084206007810187905560028101805461ff001916610100179055600c805460049092018290559381018455929093527fdf6966c971051c3d54ec59162606531493a51404a002842f56009d7e5cf4a8c79091018590558151858152908101849052600160a060020a0333168183015290517f64b085ca87a83712b2407388c26bcd35c8704da195f955ca0281de76151ec8089181900360600190a150815b92915050565b60035460009033600160a060020a03908116911614610bda57600080fd5b600554610bee90600163ffffffff61144816565b600581905550816002846040518082805190602001908083835b60208310610c275780518252601f199092019160209182019101610c08565b51815160209384036101000a60001901801990921691161790529201948552506040519384900381018420949094555050845160029286929182918401908083835b60208310610c885780518252601f199092019160209182019101610c69565b51815160209384036101000a600019018019909216911617905292019485525060405193849003019092205495945050505050565b6000600654600454111515610cd157600080fd5b600654600454610ce69163ffffffff61147e16565b905090565b60008181526001602052604081206002015460609190819081908190819062010000900460ff161515610d1d57600080fd5b60008781526001602081815260409283902060028082015460078301546005840154600685015494870180548951610100998216158a026000190190911695909504601f81018890048802860188019099528885529760ff80851698909404909316959194909390929091889190830182828015610ddc5780601f10610db157610100808354040283529160200191610ddc565b820191906000526020600020905b815481529060010190602001808311610dbf57829003601f168201915b5050505050955095509550955095509550955091939550919395565b600160a060020a03811660009081526020819052604081205460609110610e1e57600080fd5b600160a060020a0382166000908152602081815260409182902080548351818402810184019094528084529091830182828015610e7a57602002820191906000526020600020905b815481526020019060010190808311610e66575b50505050509050919050565b600354600160a060020a031681565b6000818152600160205260408120600281015462010000900460ff161515610ebc57600080fd5b600281015460ff1615610ece57600080fd5b6002810154610100900460ff1615610ee557600080fd5b805433600160a060020a03908116911614610eff57600080fd5b60028101805460ff1916600117905560408051848152600160a060020a033316602082015281517fc45ca0fea0689a6a88957342da1b39e8cad9e624c93832e7d18549965c3b2b41929181900390910190a15090919050565b6000818152600160205260408120600201548190819081908190819062010000900460ff161515610f8857600080fd5b60008781526001602052604090206002015460ff1615610fa757600080fd5b600087815260016020526040902060020154610100900460ff161515610fcc57600080fd5b600087815260016020908152604080832060070154600b5482517f70a08231000000000000000000000000000000000000000000000000000000008152600160a060020a0333811660048301529351929593909116936370a082319360248084019492938390030190829087803b15801561104657600080fd5b505af115801561105a573d6000803e3d6000fd5b505050506040513d602081101561107057600080fd5b5051101561107d57600080fd5b60008781526001602052604090205433600160a060020a03908116911614156110a557600080fd5b50505060008481526001602090815260408083208054600160a060020a0333811686529385905282852054600c5460088401546004909401549590921680875293909520805493975060001995860196509401939092918590811061110657fe5b6000918252602080832090910154600160a060020a038816835290829052604090912080548490811061113557fe5b9060005260206000200181905550816001600080600089600160a060020a0316600160a060020a031681526020019081526020016000208581548110151561117957fe5b60009182526020808320909101548352828101939093526040918201812060080193909355600160a060020a03881683529082905290208054906111c190600019830161150e565b50600160a060020a03331660008181526020818152604080832080548c855260018085529285206008810191909155805473ffffffffffffffffffffffffffffffffffffffff191690951785556002909401805461ff001916905582825283549081018455928252902001879055600c80548490811061123d57fe5b9060005260206000200154600c8281548110151561125757fe5b90600052602060002001819055508060016000600c8481548110151561127957fe5b60009182526020808320909101548352820192909252604001902060040155600c8054906112ab90600019830161150e565b50600b5460008881526001602090815260408083206007015481517f23b872dd000000000000000000000000000000000000000000000000000000008152600160a060020a0333811660048301528b81166024830152604482019290925291519416936323b872dd93606480840194938390030190829087803b15801561133157600080fd5b505af1158015611345573d6000803e3d6000fd5b505050506040513d602081101561135b57600080fd5b5051151561136857600080fd5b6000878152600160209081526040918290206007015482518a8152600160a060020a03808a1693820193909352339290921682840152606082015290517f8527342125ce29a273b550b5536d4e5be02ceddb5a3236cf5cf34e17ed235e649181900360800190a1509495945050505050565b60045481565b60006002826040518082805190602001908083835b602083106114145780518252601f1990920191602091820191016113f5565b51815160209384036101000a6000190180199092169116179052920194855250604051938490030190922054949350505050565b81810182811015610bb657fe5b600082151561146657506000610bb6565b5081810281838281151561147657fe5b0414610bb657fe5b60008282111561148a57fe5b50900390565b828054600181600116156101000203166002900490600052602060002090601f016020900481019282601f106114d157805160ff19168380011785556114fe565b828001600101855582156114fe579182015b828111156114fe5782518255916020019190600101906114e3565b5061150a929150611537565b5090565b81548183558181111561153257600083815260209020611532918101908301611537565b505050565b61048c91905b8082111561150a576000815560010161153d5600a165627a7a72305820b4fa15958299847aa95dd72e4230d2bd934a719f975ee89c5913aa9ec180b6a10029",
  "source": "pragma solidity ^0.4.18;\n\nimport \"zeppelin-solidity/contracts/math/SafeMath.sol\";\nimport \"zeppelin-solidity/contracts/token/ERC20/ERC20.sol\";\nimport \"./TixicoToken.sol\";\n\ncontract Evvent {\n    using SafeMath for uint256;\n    // Ticket structure\n    struct Ticket {\n        address owner;\n        string category;\n        bool burned;\n        bool listed;\n        bool initialized;\n        uint256 id;\n        uint256 listingIndex;\n        uint256 row;\n        uint256 seat;\n        uint256 price;\n        uint256 index;\n    }\n\n    // events\n    event LogTicketRegistered(uint256 ticketId, address buyer, uint256 price);\n    event LogTicketSwapped(uint256 ticketId, address seller, address buyer, uint256 price);\n    event LogTicketBurned(uint256 ticketId, address attendee);\n    event LogTicketListed(uint256 ticketId, uint256 price, address owner);\n    event LogEventCreated(address owner);\n    // mappings\n    mapping (address => uint256[]) ownerTickets;\n    mapping (uint256 => Ticket) tickets;\n    mapping (string => uint256) categories;\n    // variables\n    address public owner;\n    uint256 public ticketCount = 9999;\n    uint256 categoryCount = 0;\n    uint256 public boughtCount = 0;\n    uint256 maxResellPrice = 99999999;\n    uint256 ownersCut = 1;\n    uint256 eventTime;\n    uint256 revenue = 0;\n    ERC20 public tixicoToken;\n    // lists, arrays\n    uint256[] listedTicketIds;\n\n    // @notice constructor\n    // @param _ticketCount is the maximum count of tickets that can be distirbuted with this contract\n    // @param _maxResellPrice is the price ceiling for ticket reselling\n    // @param _name name of the event\n    // @param _eventTime the date of the event as seconds(unix timestamp)\n    function Evvent(uint256 _ticketCount, uint256 _maxResellPrice, uint256 _eventTime, ERC20 _tixicoToken) public {\n        owner = msg.sender;\n        eventTime = _eventTime;\n        ticketCount = _ticketCount;\n        maxResellPrice = _maxResellPrice;\n        tixicoToken = _tixicoToken;\n\n        emit LogEventCreated(owner);\n    }\n\n    // @notice creates a new ticket in the event (aka the user buys a ticket)\n    // @param categoryName is the name(id) of the category\n    // @param row is the row of the chair\n    // @param seat is the number of the chair\n    // @return created ticket id\n    // @todo add onlyOwner modifier\n    function createTicket(string categoryName, uint256 row, uint256 seat, uint256 ticketId) public returns (uint256) {\n        require(revenue + categories[categoryName] >= revenue);\n        require(boughtCount < ticketCount);\n        require(!tickets[ticketId].initialized);\n        require(categories[categoryName] > 0);\n        require(tixicoToken.balanceOf(msg.sender) >= categories[categoryName]);\n\n        boughtCount = boughtCount.add(1);\n        revenue = revenue.add(categories[categoryName]);\n        tickets[ticketId].category = categoryName;\n        tickets[ticketId].owner = msg.sender;\n        tickets[ticketId].initialized = true;\n        tickets[ticketId].id = ticketId;\n        tickets[ticketId].row = row;\n        tickets[ticketId].seat = seat;\n        tickets[ticketId].index = ownerTickets[msg.sender].length;\n        ownerTickets[msg.sender].push(ticketId);\n\n        // ETH transfer\n        // owner.transfer(categories[categoryName]);\n        // ERC20 transfer\n        require(tixicoToken.transferFrom(msg.sender, owner, categories[categoryName]));\n\n        emit LogTicketRegistered(tickets[ticketId].id, tickets[ticketId].owner, categories[categoryName]);\n\n        return ticketId;\n    }\n\n    // @notice fallback payable function that just throws\n    function () external payable {\n        revert();\n    }\n\n    // @notice returns array of all ticket ids for a user\n    // @param tOwner is the address of ticket owner\n    // @return array with ticket ids\n    function getTicketIds(address tOwner) public constant returns(uint256[] ticketIds) {\n        require(ownerTickets[tOwner].length > 0);\n        return ownerTickets[tOwner];\n    }\n\n    // @notice function to check how many tickets are left\n    // @return number of tickets left for purchase\n    function ticketsLeft() public constant returns(uint256) {\n        require(ticketCount > boughtCount);\n        return ticketCount.sub(boughtCount);\n    }\n\n    // @notice gets main information about a ticket\n    // @param ticketId the id of the ticket\n    // @return set of most important parameters\n    function getTicketInformation(uint256 ticketId) public constant returns(string, bool, bool, uint256, uint256, uint256) {\n        require(tickets[ticketId].initialized);\n        return (tickets[ticketId].category, tickets[ticketId].burned, tickets[ticketId].listed, tickets[ticketId].price, tickets[ticketId].row, tickets[ticketId].seat);\n    }\n\n    // @notice function to list tickets on the secondary market\n    // @param ticketId is the id of the ticket\n    // @param price is the desired price for the ticket\n    // @return the ticket id that was listed on the secondary market\n    function listTicket(uint256 ticketId, uint256 price) public returns (uint256) {\n        require(tickets[ticketId].initialized);\n        require(!tickets[ticketId].burned);\n        require(!tickets[ticketId].listed);\n        require(tickets[ticketId].owner == msg.sender);\n        require(price > 0);\n        require(price < categories[tickets[ticketId].category].mul(2));\n\n        tickets[ticketId].price = price;\n        tickets[ticketId].listed = true;\n        tickets[ticketId].listingIndex = listedTicketIds.length;\n        listedTicketIds.push(ticketId);\n\n        emit LogTicketListed(ticketId, price, msg.sender);\n\n        return ticketId;\n    }\n\n    // @notice function to get the tickets available on the secondary market\n    // @return uint256 array of available ticket ids\n    function getListedTicketIds() public constant returns(uint256[] listedIds) {\n        require(listedTicketIds.length > 0);\n        return listedTicketIds;\n    }\n\n    // @notice function for secondary market ticket swapping\n    // @param _ticketId the id of the sellable ticket\n    // @return the id of the same ticket\n    function swapTicket(uint256 ticketId) public returns (uint256) {\n        require(tickets[ticketId].initialized);\n        require(!tickets[ticketId].burned);\n        require(tickets[ticketId].listed);\n        require(tixicoToken.balanceOf(msg.sender) >= tickets[ticketId].price);\n        require(msg.sender != tickets[ticketId].owner);\n\n        address seller = tickets[ticketId].owner;\n        uint256 lastOwnerIndex = ownerTickets[msg.sender].length - 1;\n        uint256 lastListingIndex = listedTicketIds.length - 1;\n        uint256 ownerIndex = tickets[ticketId].index;\n        uint256 listingIndex = tickets[ticketId].listingIndex;\n\n\n        // delete ownerTickets[seller][ownerIndex];\n        ownerTickets[seller][ownerIndex] = ownerTickets[seller][lastOwnerIndex];\n        tickets[ownerTickets[seller][ownerIndex]].index = ownerIndex;\n        ownerTickets[seller].length--;\n\n        tickets[ticketId].index = ownerTickets[msg.sender].length;\n        tickets[ticketId].owner = msg.sender;\n        tickets[ticketId].listed = false;\n        ownerTickets[msg.sender].push(ticketId);\n\n        // delete listedTicketIds[listingIndex];\n        listedTicketIds[listingIndex] = listedTicketIds[lastListingIndex];\n        tickets[listedTicketIds[listingIndex]].listingIndex = listingIndex;\n        listedTicketIds.length--;\n\n        // TODO: add owners cut functionality\n        require(tixicoToken.transferFrom(msg.sender, seller, tickets[ticketId].price));\n\n        emit LogTicketSwapped(ticketId, seller, msg.sender, tickets[ticketId].price);\n\n        return ticketId;\n    }\n\n    // @notice burns the ticket, always invoked by the user\n    // @param ticketId the id of the ticket the user wants to burn\n    // @return the id of the burned ticket\n    function burnTicket(uint256 ticketId) public returns (uint256) {\n        Ticket storage ticket = tickets[ticketId];\n        require(ticket.initialized);\n        require(!ticket.burned);\n        require(!ticket.listed);\n        require(ticket.owner == msg.sender);\n\n        ticket.burned = true;\n\n        emit LogTicketBurned(ticketId, msg.sender);\n\n        return ticketId;\n    }\n\n    // @notice creates a new ticket category\n    // @param basePrice is the base price of that category\n    // @param name is the name for the category\n    // @return price of newly created category\n    // @todo require category not present\n    function createCategory(string categoryName, uint256 basePrice) public returns (uint256) {\n        require(owner == msg.sender);\n        categoryCount = categoryCount.add(1);\n        categories[categoryName] = basePrice;\n\n        return categories[categoryName];\n    }\n\n    // @notice gets price of category\n    // @param categoryName is the name of the category\n    // @return the price of the category\n    function getCategoryPrice(string categoryName) public constant returns (uint256) {\n        return categories[categoryName];\n    }\n}\n",
  "sourcePath": "/Users/kristskreics/Desktop/PROJECTS/tixicoin/public_demo/contracts/Evvent.sol",
  "compiler": {
    "name": "solc",
    "version": "0.4.23+commit.124ca40d.Emscripten.clang"
  },
  "schemaVersion": "2.0.0",
  "updatedAt": "2018-05-24T16:48:44.415Z"
}