{
  "contractName": "TixicoFaucet",
  "abi": [
    {
      "constant": true,
      "inputs": [],
      "name": "rate",
      "outputs": [
        {
          "name": "",
          "type": "uint256"
        }
      ],
      "payable": false,
      "stateMutability": "view",
      "type": "function"
    },
    {
      "constant": true,
      "inputs": [],
      "name": "weiRaised",
      "outputs": [
        {
          "name": "",
          "type": "uint256"
        }
      ],
      "payable": false,
      "stateMutability": "view",
      "type": "function"
    },
    {
      "constant": true,
      "inputs": [],
      "name": "wallet",
      "outputs": [
        {
          "name": "",
          "type": "address"
        }
      ],
      "payable": false,
      "stateMutability": "view",
      "type": "function"
    },
    {
      "constant": false,
      "inputs": [
        {
          "name": "_beneficiary",
          "type": "address"
        }
      ],
      "name": "buyTokens",
      "outputs": [],
      "payable": true,
      "stateMutability": "payable",
      "type": "function"
    },
    {
      "constant": true,
      "inputs": [],
      "name": "token",
      "outputs": [
        {
          "name": "",
          "type": "address"
        }
      ],
      "payable": false,
      "stateMutability": "view",
      "type": "function"
    },
    {
      "inputs": [
        {
          "name": "_rate",
          "type": "uint256"
        },
        {
          "name": "_wallet",
          "type": "address"
        },
        {
          "name": "_token",
          "type": "address"
        }
      ],
      "payable": false,
      "stateMutability": "nonpayable",
      "type": "constructor"
    },
    {
      "payable": true,
      "stateMutability": "payable",
      "type": "fallback"
    },
    {
      "anonymous": false,
      "inputs": [
        {
          "indexed": false,
          "name": "demander",
          "type": "address"
        }
      ],
      "name": "LogTokensTransferred",
      "type": "event"
    },
    {
      "anonymous": false,
      "inputs": [
        {
          "indexed": true,
          "name": "purchaser",
          "type": "address"
        },
        {
          "indexed": true,
          "name": "beneficiary",
          "type": "address"
        },
        {
          "indexed": false,
          "name": "value",
          "type": "uint256"
        },
        {
          "indexed": false,
          "name": "amount",
          "type": "uint256"
        }
      ],
      "name": "TokenPurchase",
      "type": "event"
    },
    {
      "constant": false,
      "inputs": [],
      "name": "receiveTokens",
      "outputs": [],
      "payable": false,
      "stateMutability": "nonpayable",
      "type": "function"
    }
  ],
  "bytecode": "0x608060405234801561001057600080fd5b506040516060806104fc8339810160409081528151602083015191909201518282826000831161003f57600080fd5b600160a060020a038216151561005457600080fd5b600160a060020a038116151561006957600080fd5b60029290925560018054600160a060020a03928316600160a060020a0319918216179091556000805493909216921691909117905550505061044c806100b06000396000f3006080604052600436106100775763ffffffff7c01000000000000000000000000000000000000000000000000000000006000350416632c4e722e81146100825780634042b66f146100a9578063521eb273146100be578063680e6c9b146100ef578063ec8ac4d814610104578063fc0c546a14610118575b6100803361012d565b005b34801561008e57600080fd5b506100976101da565b60408051918252519081900360200190f35b3480156100b557600080fd5b506100976101e0565b3480156100ca57600080fd5b506100d36101e6565b60408051600160a060020a039092168252519081900360200190f35b3480156100fb57600080fd5b506100806101f5565b610080600160a060020a036004351661012d565b34801561012457600080fd5b506100d36102aa565b34600061013a83836102b9565b610143826102de565b600354909150610159908363ffffffff6102fb16565b6003556101668382610308565b82600160a060020a031633600160a060020a03167f623b3804fa71d67900d064613da8f94b9617215ee90799290593e1745087ad188484604051808381526020018281526020019250505060405180910390a36101c383836102da565b6101cb610312565b6101d583836102da565b505050565b60025481565b60035481565b600154600160a060020a031681565b600160a060020a03331660009081526004602052604090205460c81161021a57600080fd5b600160a060020a03331660009081526004602052604090205461024490606463ffffffff6102fb16565b33600160a060020a03811660009081526004602052604090209190915561026c906064610308565b60408051600160a060020a033316815290517f7e6b46cb963aca78cb6fd87ebe1be5d4e30315bae84d80ea1c9411a15496d6319181900360200190a1565b600054600160a060020a031681565b600160a060020a03821615156102ce57600080fd5b8015156102da57600080fd5b5050565b60006102f56002548361034e90919063ffffffff16565b92915050565b818101828110156102f557fe5b6102da8282610377565b600154604051600160a060020a03909116903480156108fc02916000818181858888f1935050505015801561034b573d6000803e3d6000fd5b50565b600082151561035f575060006102f5565b5081810281838281151561036f57fe5b04146102f557fe5b60008054604080517f40c10f19000000000000000000000000000000000000000000000000000000008152600160a060020a03868116600483015260248201869052915191909216926340c10f1992604480820193602093909283900390910190829087803b1580156103e957600080fd5b505af11580156103fd573d6000803e3d6000fd5b505050506040513d602081101561041357600080fd5b505115156102da57600080fd00a165627a7a72305820bb37d6a72dae5948b2ac274f79445256a1990a8ee43dcc160f3479efc9e876aa0029",
  "source": "pragma solidity ^0.4.19;\n\nimport \"zeppelin-solidity/contracts/math/SafeMath.sol\";\nimport 'zeppelin-solidity/contracts/crowdsale/emission/MintedCrowdsale.sol';\nimport 'zeppelin-solidity/contracts/token/ERC20/MintableToken.sol';\n\ncontract TixicoFaucet is MintedCrowdsale {\n    mapping (address => uint) balances;\n    event LogTokensTransferred(address demander);\n\n    function TixicoFaucet(uint256 _rate, address _wallet, MintableToken _token) public Crowdsale(_rate, _wallet, _token) {}\n\n    function receiveTokens() public {\n        require(balances[msg.sender] < 200);\n\n        balances[msg.sender] = balances[msg.sender].add(100);\n        _processPurchase(msg.sender, 100);\n\n        emit LogTokensTransferred(msg.sender);\n    }\n}\n",
  "sourcePath": "/Users/kristskreics/Desktop/PROJECTS/tixicoin/public_demo/contracts/TixicoFaucet.sol",
  "compiler": {
    "name": "solc",
    "version": "0.4.23+commit.124ca40d.Emscripten.clang"
  },
  "schemaVersion": "2.0.0",
  "updatedAt": "2018-05-24T16:48:44.405Z"
}