{
  "contractName": "TokenFaucet",
  "abi": [
    {
      "inputs": [],
      "payable": false,
      "stateMutability": "nonpayable",
      "type": "constructor"
    },
    {
      "anonymous": false,
      "inputs": [
        {
          "indexed": false,
          "name": "demander",
          "type": "address"
        },
        {
          "indexed": false,
          "name": "amount",
          "type": "uint256"
        }
      ],
      "name": "LogTokensTransferred",
      "type": "event"
    },
    {
      "anonymous": false,
      "inputs": [
        {
          "indexed": false,
          "name": "sender",
          "type": "address"
        },
        {
          "indexed": false,
          "name": "amount",
          "type": "uint256"
        }
      ],
      "name": "LogTokensDeposited",
      "type": "event"
    },
    {
      "constant": true,
      "inputs": [],
      "name": "getTokenAddress",
      "outputs": [
        {
          "name": "",
          "type": "address"
        }
      ],
      "payable": false,
      "stateMutability": "view",
      "type": "function"
    },
    {
      "constant": false,
      "inputs": [
        {
          "name": "token",
          "type": "address"
        }
      ],
      "name": "setTokenAddress",
      "outputs": [],
      "payable": false,
      "stateMutability": "nonpayable",
      "type": "function"
    },
    {
      "constant": false,
      "inputs": [
        {
          "name": "amount",
          "type": "uint256"
        }
      ],
      "name": "demandTokens",
      "outputs": [],
      "payable": false,
      "stateMutability": "nonpayable",
      "type": "function"
    },
    {
      "constant": false,
      "inputs": [
        {
          "name": "amount",
          "type": "uint256"
        }
      ],
      "name": "depositTokens",
      "outputs": [],
      "payable": false,
      "stateMutability": "nonpayable",
      "type": "function"
    }
  ],
  "bytecode": "0x608060405260006002556000600355600060045534801561001f57600080fd5b50336000806101000a81548173ffffffffffffffffffffffffffffffffffffffff021916908373ffffffffffffffffffffffffffffffffffffffff1602179055506106918061006f6000396000f300608060405260043610610062576000357c0100000000000000000000000000000000000000000000000000000000900463ffffffff16806310fe9ae81461006757806326a4e8d2146100be578063c464df3914610101578063dd49756e1461012e575b600080fd5b34801561007357600080fd5b5061007c61015b565b604051808273ffffffffffffffffffffffffffffffffffffffff1673ffffffffffffffffffffffffffffffffffffffff16815260200191505060405180910390f35b3480156100ca57600080fd5b506100ff600480360381019080803573ffffffffffffffffffffffffffffffffffffffff169060200190929190505050610185565b005b34801561010d57600080fd5b5061012c60048036038101908080359060200190929190505050610224565b005b34801561013a57600080fd5b50610159600480360381019080803590602001909291905050506103fe565b005b6000600160009054906101000a900473ffffffffffffffffffffffffffffffffffffffff16905090565b3373ffffffffffffffffffffffffffffffffffffffff166000809054906101000a900473ffffffffffffffffffffffffffffffffffffffff1673ffffffffffffffffffffffffffffffffffffffff161415156101e057600080fd5b80600160006101000a81548173ffffffffffffffffffffffffffffffffffffffff021916908373ffffffffffffffffffffffffffffffffffffffff16021790555050565b600060035482600354011015151561023b57600080fd5b8160025411151561024b57600080fd5b8160036000828254019250508190555060045460035410151561026d57600080fd5b60035460045403600281905550600160009054906101000a900473ffffffffffffffffffffffffffffffffffffffff169050600115158173ffffffffffffffffffffffffffffffffffffffff1663a9059cbb33856040518363ffffffff167c0100000000000000000000000000000000000000000000000000000000028152600401808373ffffffffffffffffffffffffffffffffffffffff1673ffffffffffffffffffffffffffffffffffffffff16815260200182815260200192505050602060405180830381600087803b15801561034657600080fd5b505af115801561035a573d6000803e3d6000fd5b505050506040513d602081101561037057600080fd5b8101908080519060200190929190505050151514151561038f57600080fd5b7f403a04f771a6178d8700c54cfd7302e0e8e5b245328f4141541eb7f281beebdb3383604051808373ffffffffffffffffffffffffffffffffffffffff1673ffffffffffffffffffffffffffffffffffffffff1681526020018281526020019250505060405180910390a15050565b6000600454826004540111151561041457600080fd5b60008211151561042357600080fd5b6000809054906101000a900473ffffffffffffffffffffffffffffffffffffffff1673ffffffffffffffffffffffffffffffffffffffff163373ffffffffffffffffffffffffffffffffffffffff1614151561047e57600080fd5b816004600082825401925050819055506004546003541015156104a057600080fd5b60035460045403600281905550600160009054906101000a900473ffffffffffffffffffffffffffffffffffffffff169050600115158173ffffffffffffffffffffffffffffffffffffffff166323b872dd3330866040518463ffffffff167c0100000000000000000000000000000000000000000000000000000000028152600401808473ffffffffffffffffffffffffffffffffffffffff1673ffffffffffffffffffffffffffffffffffffffff1681526020018373ffffffffffffffffffffffffffffffffffffffff1673ffffffffffffffffffffffffffffffffffffffff1681526020018281526020019350505050602060405180830381600087803b1580156105ad57600080fd5b505af11580156105c1573d6000803e3d6000fd5b505050506040513d60208110156105d757600080fd5b810190808051906020019092919050505015151415156105f657600080fd5b7f42950295af2068817aba72cd1a6f3c8671e96779e297372a3000b1c5ac3c6ead3383604051808373ffffffffffffffffffffffffffffffffffffffff1673ffffffffffffffffffffffffffffffffffffffff1681526020018281526020019250505060405180910390a150505600a165627a7a72305820a95df2f9112d11df7a3a5512acc287271a289b7da573b953c36ae45d86da683e0029",
  "source": "pragma solidity ^0.4.18;\n\nimport \"./TixicoToken.sol\";\n\ncontract TokenFaucet {\n    // events\n    event LogTokensTransferred(address demander, uint amount);\n    event LogTokensDeposited(address sender, uint amount);\n\n    // variables\n    address owner;\n    address tokenAddress;\n    uint available = 0;\n    uint demanded = 0;\n    uint total = 0;\n\n    // @notice constructor\n    // @param _tixicoAddress sets the token address\n    function TokenFaucet() public {\n        owner = msg.sender;\n    }\n\n    function getTokenAddress() public view returns (address) {\n        return tokenAddress;\n    }\n\n    // @notice sets the address for the token\n    // @param token is the to be address for the token\n    function setTokenAddress(address token) public {\n        require(owner == msg.sender);\n\n        tokenAddress = token;\n    }\n\n    // @notice supplies the demander with token if possible\n    // @param amount sets the demanded amount for this call\n    function demandTokens(uint amount) public {\n        require(demanded + amount >= demanded);\n        require(available > amount);\n\n        demanded += amount;\n        require(demanded < total);\n        available = total - demanded;\n\n        ERC20Interface token = ERC20Interface(tokenAddress);\n        require(token.transfer(msg.sender, amount) == true);\n\n        LogTokensTransferred(msg.sender, amount);\n    }\n\n    // @notice deposits tokens for distribution in the contract\n    // @param amount sets the amount to be deposited\n    function depositTokens(uint amount) public {\n        require(total + amount > total);\n        require(amount > 0);\n        require(msg.sender == owner);\n\n        total += amount;\n        require(demanded < total);\n        available = total - demanded;\n\n        ERC20Interface token = ERC20Interface(tokenAddress);\n        require(token.transferFrom(msg.sender, address(this), amount) == true);\n\n        LogTokensDeposited(msg.sender, amount);\n    }\n}\n",
  "sourcePath": "/Users/kristskreics/Desktop/PROJECTS/tixicoin/public_demo/contracts/TokenFaucet.sol",
  "compiler": {
    "name": "solc",
    "version": "0.4.23+commit.124ca40d.Emscripten.clang"
  },
  "schemaVersion": "2.0.0",
  "updatedAt": "2018-04-27T12:49:57.173Z"
}